
ATmega328_EXT_interrupt_pin_masking.elf:     file format elf32-avr

Sections:
Idx Name          Size      VMA       LMA       File off  Algn
  0 .data         00000022  00800100  000002a6  0000031a  2**0
                  CONTENTS, ALLOC, LOAD, DATA
  1 .text         000002a6  00000000  00000000  00000074  2**1
                  CONTENTS, ALLOC, LOAD, READONLY, CODE
  2 .comment      00000030  00000000  00000000  0000033c  2**0
                  CONTENTS, READONLY
  3 .note.gnu.avr.deviceinfo 00000040  00000000  00000000  0000036c  2**2
                  CONTENTS, READONLY
  4 .debug_aranges 00000060  00000000  00000000  000003ac  2**0
                  CONTENTS, READONLY, DEBUGGING
  5 .debug_info   00000e21  00000000  00000000  0000040c  2**0
                  CONTENTS, READONLY, DEBUGGING
  6 .debug_abbrev 000009e5  00000000  00000000  0000122d  2**0
                  CONTENTS, READONLY, DEBUGGING
  7 .debug_line   00000458  00000000  00000000  00001c12  2**0
                  CONTENTS, READONLY, DEBUGGING
  8 .debug_frame  00000114  00000000  00000000  0000206c  2**2
                  CONTENTS, READONLY, DEBUGGING
  9 .debug_str    0000054e  00000000  00000000  00002180  2**0
                  CONTENTS, READONLY, DEBUGGING
 10 .debug_loc    00000371  00000000  00000000  000026ce  2**0
                  CONTENTS, READONLY, DEBUGGING
 11 .debug_ranges 00000040  00000000  00000000  00002a3f  2**0
                  CONTENTS, READONLY, DEBUGGING

Disassembly of section .text:

00000000 <__vectors>:
   0:	0c 94 5a 00 	jmp	0xb4	; 0xb4 <__ctors_end>
   4:	0c 94 77 00 	jmp	0xee	; 0xee <__bad_interrupt>
   8:	0c 94 77 00 	jmp	0xee	; 0xee <__bad_interrupt>
   c:	0c 94 0b 01 	jmp	0x216	; 0x216 <__vector_3>
  10:	0c 94 77 00 	jmp	0xee	; 0xee <__bad_interrupt>
  14:	0c 94 77 00 	jmp	0xee	; 0xee <__bad_interrupt>
  18:	0c 94 77 00 	jmp	0xee	; 0xee <__bad_interrupt>
  1c:	0c 94 77 00 	jmp	0xee	; 0xee <__bad_interrupt>
  20:	0c 94 77 00 	jmp	0xee	; 0xee <__bad_interrupt>
  24:	0c 94 77 00 	jmp	0xee	; 0xee <__bad_interrupt>
  28:	0c 94 77 00 	jmp	0xee	; 0xee <__bad_interrupt>
  2c:	0c 94 77 00 	jmp	0xee	; 0xee <__bad_interrupt>
  30:	0c 94 77 00 	jmp	0xee	; 0xee <__bad_interrupt>
  34:	0c 94 77 00 	jmp	0xee	; 0xee <__bad_interrupt>
  38:	0c 94 77 00 	jmp	0xee	; 0xee <__bad_interrupt>
  3c:	0c 94 77 00 	jmp	0xee	; 0xee <__bad_interrupt>
  40:	0c 94 77 00 	jmp	0xee	; 0xee <__bad_interrupt>
  44:	0c 94 77 00 	jmp	0xee	; 0xee <__bad_interrupt>
  48:	0c 94 77 00 	jmp	0xee	; 0xee <__bad_interrupt>
  4c:	0c 94 77 00 	jmp	0xee	; 0xee <__bad_interrupt>
  50:	0c 94 77 00 	jmp	0xee	; 0xee <__bad_interrupt>
  54:	0c 94 77 00 	jmp	0xee	; 0xee <__bad_interrupt>
  58:	0c 94 77 00 	jmp	0xee	; 0xee <__bad_interrupt>
  5c:	0c 94 77 00 	jmp	0xee	; 0xee <__bad_interrupt>
  60:	0c 94 77 00 	jmp	0xee	; 0xee <__bad_interrupt>
  64:	0c 94 77 00 	jmp	0xee	; 0xee <__bad_interrupt>
  68:	0c 94 77 00 	jmp	0xee	; 0xee <__bad_interrupt>
  6c:	0c 94 77 00 	jmp	0xee	; 0xee <__bad_interrupt>
  70:	0c 94 77 00 	jmp	0xee	; 0xee <__bad_interrupt>
  74:	0c 94 77 00 	jmp	0xee	; 0xee <__bad_interrupt>
  78:	0c 94 77 00 	jmp	0xee	; 0xee <__bad_interrupt>
  7c:	0c 94 77 00 	jmp	0xee	; 0xee <__bad_interrupt>
  80:	0c 94 77 00 	jmp	0xee	; 0xee <__bad_interrupt>
  84:	0c 94 77 00 	jmp	0xee	; 0xee <__bad_interrupt>
  88:	0c 94 77 00 	jmp	0xee	; 0xee <__bad_interrupt>
  8c:	0c 94 77 00 	jmp	0xee	; 0xee <__bad_interrupt>
  90:	0c 94 77 00 	jmp	0xee	; 0xee <__bad_interrupt>
  94:	0c 94 77 00 	jmp	0xee	; 0xee <__bad_interrupt>
  98:	0c 94 77 00 	jmp	0xee	; 0xee <__bad_interrupt>
  9c:	0c 94 77 00 	jmp	0xee	; 0xee <__bad_interrupt>
  a0:	0c 94 77 00 	jmp	0xee	; 0xee <__bad_interrupt>
  a4:	0c 94 77 00 	jmp	0xee	; 0xee <__bad_interrupt>
  a8:	0c 94 77 00 	jmp	0xee	; 0xee <__bad_interrupt>
  ac:	0c 94 77 00 	jmp	0xee	; 0xee <__bad_interrupt>
  b0:	0c 94 77 00 	jmp	0xee	; 0xee <__bad_interrupt>

000000b4 <__ctors_end>:
  b4:	11 24       	eor	r1, r1
  b6:	1f be       	out	0x3f, r1	; 63
  b8:	cf ef       	ldi	r28, 0xFF	; 255
  ba:	d8 e0       	ldi	r29, 0x08	; 8
  bc:	de bf       	out	0x3e, r29	; 62
  be:	cd bf       	out	0x3d, r28	; 61

000000c0 <__do_copy_data>:
  c0:	11 e0       	ldi	r17, 0x01	; 1
  c2:	a0 e0       	ldi	r26, 0x00	; 0
  c4:	b1 e0       	ldi	r27, 0x01	; 1
  c6:	e6 ea       	ldi	r30, 0xA6	; 166
  c8:	f2 e0       	ldi	r31, 0x02	; 2
  ca:	02 c0       	rjmp	.+4      	; 0xd0 <__do_copy_data+0x10>
  cc:	05 90       	lpm	r0, Z+
  ce:	0d 92       	st	X+, r0
  d0:	a2 32       	cpi	r26, 0x22	; 34
  d2:	b1 07       	cpc	r27, r17
  d4:	d9 f7       	brne	.-10     	; 0xcc <__do_copy_data+0xc>

000000d6 <__do_clear_bss>:
  d6:	21 e0       	ldi	r18, 0x01	; 1
  d8:	a2 e2       	ldi	r26, 0x22	; 34
  da:	b1 e0       	ldi	r27, 0x01	; 1
  dc:	01 c0       	rjmp	.+2      	; 0xe0 <.do_clear_bss_start>

000000de <.do_clear_bss_loop>:
  de:	1d 92       	st	X+, r1

000000e0 <.do_clear_bss_start>:
  e0:	a2 32       	cpi	r26, 0x22	; 34
  e2:	b2 07       	cpc	r27, r18
  e4:	e1 f7       	brne	.-8      	; 0xde <.do_clear_bss_loop>
  e6:	0e 94 eb 00 	call	0x1d6	; 0x1d6 <main>
  ea:	0c 94 51 01 	jmp	0x2a2	; 0x2a2 <_exit>

000000ee <__bad_interrupt>:
  ee:	0c 94 00 00 	jmp	0	; 0x0 <__vectors>

000000f2 <initPortDir>:
		PORTD &=~ BitNo; //turn off led bit, leave rest with AND mask
	}
	else {
		//do nothing
	}
}
  f2:	1f 93       	push	r17
  f4:	cf 93       	push	r28
  f6:	df 93       	push	r29
  f8:	ec 01       	movw	r28, r24
  fa:	16 2f       	mov	r17, r22
  fc:	61 e0       	ldi	r22, 0x01	; 1
  fe:	71 e0       	ldi	r23, 0x01	; 1
 100:	0e 94 48 01 	call	0x290	; 0x290 <strcmp>
 104:	89 2b       	or	r24, r25
 106:	19 f4       	brne	.+6      	; 0x10e <initPortDir+0x1c>
 108:	84 b1       	in	r24, 0x04	; 4
 10a:	81 2b       	or	r24, r17
 10c:	84 b9       	out	0x04, r24	; 4
 10e:	66 e0       	ldi	r22, 0x06	; 6
 110:	71 e0       	ldi	r23, 0x01	; 1
 112:	ce 01       	movw	r24, r28
 114:	0e 94 48 01 	call	0x290	; 0x290 <strcmp>
 118:	89 2b       	or	r24, r25
 11a:	19 f4       	brne	.+6      	; 0x122 <initPortDir+0x30>
 11c:	87 b1       	in	r24, 0x07	; 7
 11e:	81 2b       	or	r24, r17
 120:	87 b9       	out	0x07, r24	; 7
 122:	6b e0       	ldi	r22, 0x0B	; 11
 124:	71 e0       	ldi	r23, 0x01	; 1
 126:	ce 01       	movw	r24, r28
 128:	0e 94 48 01 	call	0x290	; 0x290 <strcmp>
 12c:	89 2b       	or	r24, r25
 12e:	19 f4       	brne	.+6      	; 0x136 <initPortDir+0x44>
 130:	8a b1       	in	r24, 0x0a	; 10
 132:	18 2b       	or	r17, r24
 134:	1a b9       	out	0x0a, r17	; 10
 136:	df 91       	pop	r29
 138:	cf 91       	pop	r28
 13a:	1f 91       	pop	r17
 13c:	08 95       	ret

0000013e <setBit>:

void setBit(char *DataReg, char BitNo) {
 13e:	1f 93       	push	r17
 140:	cf 93       	push	r28
 142:	df 93       	push	r29
 144:	ec 01       	movw	r28, r24
 146:	16 2f       	mov	r17, r22
	
	if (strcmp(DataReg, "PORTB") == 0) {
 148:	60 e1       	ldi	r22, 0x10	; 16
 14a:	71 e0       	ldi	r23, 0x01	; 1
 14c:	0e 94 48 01 	call	0x290	; 0x290 <strcmp>
 150:	89 2b       	or	r24, r25
 152:	19 f4       	brne	.+6      	; 0x15a <setBit+0x1c>
		PORTB |= BitNo; //turn off led bit, leave rest with AND mask
 154:	85 b1       	in	r24, 0x05	; 5
 156:	81 2b       	or	r24, r17
 158:	85 b9       	out	0x05, r24	; 5
	}
	if (strcmp(DataReg, "PORTC") == 0) {
 15a:	66 e1       	ldi	r22, 0x16	; 22
 15c:	71 e0       	ldi	r23, 0x01	; 1
 15e:	ce 01       	movw	r24, r28
 160:	0e 94 48 01 	call	0x290	; 0x290 <strcmp>
 164:	89 2b       	or	r24, r25
 166:	19 f4       	brne	.+6      	; 0x16e <setBit+0x30>
		PORTC |= BitNo; //turn off led bit, leave rest with AND mask
 168:	88 b1       	in	r24, 0x08	; 8
 16a:	81 2b       	or	r24, r17
 16c:	88 b9       	out	0x08, r24	; 8
	}
	if (strcmp(DataReg, "PORTD") == 0) {
 16e:	6c e1       	ldi	r22, 0x1C	; 28
 170:	71 e0       	ldi	r23, 0x01	; 1
 172:	ce 01       	movw	r24, r28
 174:	0e 94 48 01 	call	0x290	; 0x290 <strcmp>
 178:	89 2b       	or	r24, r25
 17a:	19 f4       	brne	.+6      	; 0x182 <setBit+0x44>
		PORTD |= BitNo; //turn off led bit, leave rest with AND mask
 17c:	8b b1       	in	r24, 0x0b	; 11
 17e:	18 2b       	or	r17, r24
 180:	1b b9       	out	0x0b, r17	; 11
	}
	else {
		//do nothing
	}
}
 182:	df 91       	pop	r29
 184:	cf 91       	pop	r28
 186:	1f 91       	pop	r17
 188:	08 95       	ret

0000018a <toggleBit>:

void toggleBit(char *DataReg, char BitNo) {
 18a:	1f 93       	push	r17
 18c:	cf 93       	push	r28
 18e:	df 93       	push	r29
 190:	ec 01       	movw	r28, r24
 192:	16 2f       	mov	r17, r22
	
	if (strcmp(DataReg, "PORTB") == 0) {
 194:	60 e1       	ldi	r22, 0x10	; 16
 196:	71 e0       	ldi	r23, 0x01	; 1
 198:	0e 94 48 01 	call	0x290	; 0x290 <strcmp>
 19c:	89 2b       	or	r24, r25
 19e:	19 f4       	brne	.+6      	; 0x1a6 <toggleBit+0x1c>
		PORTB ^= BitNo; //turn off led bit, leave rest with AND mask
 1a0:	85 b1       	in	r24, 0x05	; 5
 1a2:	81 27       	eor	r24, r17
 1a4:	85 b9       	out	0x05, r24	; 5
	}
	if (strcmp(DataReg, "PORTC") == 0) {
 1a6:	66 e1       	ldi	r22, 0x16	; 22
 1a8:	71 e0       	ldi	r23, 0x01	; 1
 1aa:	ce 01       	movw	r24, r28
 1ac:	0e 94 48 01 	call	0x290	; 0x290 <strcmp>
 1b0:	89 2b       	or	r24, r25
 1b2:	19 f4       	brne	.+6      	; 0x1ba <toggleBit+0x30>
		PORTC ^= BitNo; //turn off led bit, leave rest with AND mask
 1b4:	88 b1       	in	r24, 0x08	; 8
 1b6:	81 27       	eor	r24, r17
 1b8:	88 b9       	out	0x08, r24	; 8
	}
	if (strcmp(DataReg, "PORTD") == 0) {
 1ba:	6c e1       	ldi	r22, 0x1C	; 28
 1bc:	71 e0       	ldi	r23, 0x01	; 1
 1be:	ce 01       	movw	r24, r28
 1c0:	0e 94 48 01 	call	0x290	; 0x290 <strcmp>
 1c4:	89 2b       	or	r24, r25
 1c6:	19 f4       	brne	.+6      	; 0x1ce <toggleBit+0x44>
		PORTD ^= BitNo; //turn off led bit, leave rest with AND mask
 1c8:	8b b1       	in	r24, 0x0b	; 11
 1ca:	18 27       	eor	r17, r24
 1cc:	1b b9       	out	0x0b, r17	; 11
	}
	else {
		//do nothing
	}
 1ce:	df 91       	pop	r29
 1d0:	cf 91       	pop	r28
 1d2:	1f 91       	pop	r17
 1d4:	08 95       	ret

000001d6 <main>:
const char button2 = 0b00001000; //PB3

int main(void)
{
	//ioinit(); //Setup uart and STDIO. Use printf etc. if you need to debug!
	initPortDir("DDRD", led0); //init led0 as output
 1d6:	64 e0       	ldi	r22, 0x04	; 4
 1d8:	8b e0       	ldi	r24, 0x0B	; 11
 1da:	91 e0       	ldi	r25, 0x01	; 1
 1dc:	0e 94 79 00 	call	0xf2	; 0xf2 <initPortDir>
	initPortDir("DDRD", led1); //init led1 as output
 1e0:	68 e0       	ldi	r22, 0x08	; 8
 1e2:	8b e0       	ldi	r24, 0x0B	; 11
 1e4:	91 e0       	ldi	r25, 0x01	; 1
 1e6:	0e 94 79 00 	call	0xf2	; 0xf2 <initPortDir>
	
	setBit("PORTB", button1); //enable button1 pullup 
 1ea:	64 e0       	ldi	r22, 0x04	; 4
 1ec:	80 e1       	ldi	r24, 0x10	; 16
 1ee:	91 e0       	ldi	r25, 0x01	; 1
 1f0:	0e 94 9f 00 	call	0x13e	; 0x13e <setBit>
	setBit("PORTB", button2); //enable button2 pullup
 1f4:	68 e0       	ldi	r22, 0x08	; 8
 1f6:	80 e1       	ldi	r24, 0x10	; 16
 1f8:	91 e0       	ldi	r25, 0x01	; 1
 1fa:	0e 94 9f 00 	call	0x13e	; 0x13e <setBit>

	// Setup change interrupt
	PCICR |= (1 << PCIE0);     // set PCIE0 to enable PCMSK0 scan
 1fe:	e8 e6       	ldi	r30, 0x68	; 104
 200:	f0 e0       	ldi	r31, 0x00	; 0
 202:	80 81       	ld	r24, Z
 204:	81 60       	ori	r24, 0x01	; 1
 206:	80 83       	st	Z, r24
	PCMSK0 |= (1 << PCINT2) | (1 << PCINT3);   // set PCINT2+3 to trigger an interrupt on state change, add more if needed
 208:	eb e6       	ldi	r30, 0x6B	; 107
 20a:	f0 e0       	ldi	r31, 0x00	; 0
 20c:	80 81       	ld	r24, Z
 20e:	8c 60       	ori	r24, 0x0C	; 12
 210:	80 83       	st	Z, r24
	
	sei(); //enable interrupts
 212:	78 94       	sei
 214:	ff cf       	rjmp	.-2      	; 0x214 <main+0x3e>

00000216 <__vector_3>:
		//everything happens in external interrupt
	}
}

//PortB change interrupt routine with bit masking
ISR (PCINT0_vect) {
 216:	1f 92       	push	r1
 218:	0f 92       	push	r0
 21a:	0f b6       	in	r0, 0x3f	; 63
 21c:	0f 92       	push	r0
 21e:	11 24       	eor	r1, r1
 220:	2f 93       	push	r18
 222:	3f 93       	push	r19
 224:	4f 93       	push	r20
 226:	5f 93       	push	r21
 228:	6f 93       	push	r22
 22a:	7f 93       	push	r23
 22c:	8f 93       	push	r24
 22e:	9f 93       	push	r25
 230:	af 93       	push	r26
 232:	bf 93       	push	r27
 234:	cf 93       	push	r28
 236:	ef 93       	push	r30
 238:	ff 93       	push	r31
	
	char changedbits;
	changedbits = PINB ^ portbhistory;
 23a:	c3 b1       	in	r28, 0x03	; 3
 23c:	80 91 00 01 	lds	r24, 0x0100	; 0x800100 <__data_start>
 240:	c8 27       	eor	r28, r24
	portbhistory = PINB;
 242:	83 b1       	in	r24, 0x03	; 3
 244:	80 93 00 01 	sts	0x0100, r24	; 0x800100 <__data_start>
	
	if (changedbits & button1) { // button1 changed? 
 248:	c2 ff       	sbrs	r28, 2
 24a:	07 c0       	rjmp	.+14     	; 0x25a <__vector_3+0x44>
		if( (PINB & button1) ) { // button1 high?
 24c:	1a 99       	sbic	0x03, 2	; 3
 24e:	05 c0       	rjmp	.+10     	; 0x25a <__vector_3+0x44>
			/* LOW to HIGH pin change */
			//toggleLed(led1);
		}
		else { //button1 must be low!
			/* HIGH to LOW pin change */
			toggleBit("PORTD", led1); //led1 will light on button1 release
 250:	68 e0       	ldi	r22, 0x08	; 8
 252:	8c e1       	ldi	r24, 0x1C	; 28
 254:	91 e0       	ldi	r25, 0x01	; 1
 256:	0e 94 c5 00 	call	0x18a	; 0x18a <toggleBit>
		}
	}
	
	if (changedbits & button2) {
 25a:	c3 ff       	sbrs	r28, 3
 25c:	07 c0       	rjmp	.+14     	; 0x26c <__vector_3+0x56>
		if( (PINB & button2) ) {
 25e:	1b 9b       	sbis	0x03, 3	; 3
 260:	05 c0       	rjmp	.+10     	; 0x26c <__vector_3+0x56>
			/* LOW to HIGH pin change */
			toggleBit("PORTD", led0);
 262:	64 e0       	ldi	r22, 0x04	; 4
 264:	8c e1       	ldi	r24, 0x1C	; 28
 266:	91 e0       	ldi	r25, 0x01	; 1
 268:	0e 94 c5 00 	call	0x18a	; 0x18a <toggleBit>
			//toggleLed(led0);
		}
	}	
		
	//add more if needed
 26c:	ff 91       	pop	r31
 26e:	ef 91       	pop	r30
 270:	cf 91       	pop	r28
 272:	bf 91       	pop	r27
 274:	af 91       	pop	r26
 276:	9f 91       	pop	r25
 278:	8f 91       	pop	r24
 27a:	7f 91       	pop	r23
 27c:	6f 91       	pop	r22
 27e:	5f 91       	pop	r21
 280:	4f 91       	pop	r20
 282:	3f 91       	pop	r19
 284:	2f 91       	pop	r18
 286:	0f 90       	pop	r0
 288:	0f be       	out	0x3f, r0	; 63
 28a:	0f 90       	pop	r0
 28c:	1f 90       	pop	r1
 28e:	18 95       	reti

00000290 <strcmp>:
 290:	fb 01       	movw	r30, r22
 292:	dc 01       	movw	r26, r24
 294:	8d 91       	ld	r24, X+
 296:	01 90       	ld	r0, Z+
 298:	80 19       	sub	r24, r0
 29a:	01 10       	cpse	r0, r1
 29c:	d9 f3       	breq	.-10     	; 0x294 <strcmp+0x4>
 29e:	99 0b       	sbc	r25, r25
 2a0:	08 95       	ret

000002a2 <_exit>:
 2a2:	f8 94       	cli

000002a4 <__stop_program>:
 2a4:	ff cf       	rjmp	.-2      	; 0x2a4 <__stop_program>
