S02B000041546D6567613332385F4558545F696E746572727570745F70696E5F6D61736B696E672E73726563A2
S11300000C945A000C9477000C9477000C940B0118
S11300100C9477000C9477000C9477000C94770080
S11300200C9477000C9477000C9477000C94770070
S11300300C9477000C9477000C9477000C94770060
S11300400C9477000C9477000C9477000C94770050
S11300500C9477000C9477000C9477000C94770040
S11300600C9477000C9477000C9477000C94770030
S11300700C9477000C9477000C9477000C94770020
S11300800C9477000C9477000C9477000C94770010
S11300900C9477000C9477000C9477000C94770000
S11300A00C9477000C9477000C9477000C947700F0
S11300B00C94770011241FBECFEFD8E0DEBFCDBF74
S11300C011E0A0E0B1E0E6EAF2E002C005900D9292
S11300D0A232B107D9F721E0A2E2B1E001C01D923A
S11300E0A232B207E1F70E94EB000C9451010C9488
S11300F000001F93CF93DF93EC01162F61E071E0B2
S11301000E944801892B19F484B1812B84B966E0DB
S113011071E0CE010E944801892B19F487B1812B2B
S113012087B96BE071E0CE010E944801892B19F474
S11301308AB1182B1AB9DF91CF911F9108951F939B
S1130140CF93DF93EC01162F60E171E00E94480128
S1130150892B19F485B1812B85B966E171E0CE0153
S11301600E944801892B19F488B1812B88B96CE16C
S113017071E0CE010E944801892B19F48BB1182B30
S11301801BB9DF91CF911F9108951F93CF93DF93F4
S1130190EC01162F60E171E00E944801892B19F4EB
S11301A085B1812785B966E171E0CE010E944801DD
S11301B0892B19F488B1812788B96CE171E0CE01EB
S11301C00E944801892B19F48BB118271BB9DF91C0
S11301D0CF911F91089564E08BE091E00E94790033
S11301E068E08BE091E00E94790064E080E191E0B6
S11301F00E949F0068E080E191E00E949F00E8E691
S1130200F0E0808181608083EBE6F0E080818C60A7
S113021080837894FFCF1F920F920FB60F92112410
S11302202F933F934F935F936F937F938F939F93FA
S1130230AF93BF93CF93EF93FF93C3B1809100012A
S1130240C82783B180930001C2FF07C01A9905C073
S113025068E08CE191E00E94C500C3FF07C01B9BCE
S113026005C064E08CE191E00E94C500FF91EF912C
S1130270CF91BF91AF919F918F917F916F915F913A
S11302804F913F912F910F900FBE0F901F90189593
S1130290FB01DC018D91019080190110D9F3990BB8
S10902A00895F894FFCF5D
S11302A6FF444452420044445243004444524400EE
S11302B6504F52544200504F52544300504F5254E0
S10502C64400EE
S9030000FC
